{
    "000/my_blockchain_test/Shanghai": {
        "network": "Shanghai",
        "genesisRLP": "0xf9021df90217a00000000000000000000000000000000000000000000000000000000000000000a01dcc4de8dec75d7aab85b567b6ccd41ad312451b948a7413f0a142fd40d49347940000000000000000000000000000000000000000a0aff9f63320a482f8c4e4f15f659e6a7ac382138fbbb6919243b0cba4c5988a5aa056e81f171bcc55a6ff8345e692c0f86e5b48e01b996cadc001622fb5e363b421a056e81f171bcc55a6ff8345e692c0f86e5b48e01b996cadc001622fb5e363b421b9010000000000000000000000000000000000000000000000000000000000000000000000000000000000000000000000000000000000000000000000000000000000000000000000000000000000000000000000000000000000000000000000000000000000000000000000000000000000000000000000000000000000000000000000000000000000000000000000000000000000000000000000000000000000000000000000000000000000000000000000000000000000000000000000000000000000000000000000000000000000000000000000000000000000000000000000000000000000000000000000000000000000000000000000000000000000808088016345785d8a0000808000a0000000000000000000000000000000000000000000000000000000000000000088000000000000000007a056e81f171bcc55a6ff8345e692c0f86e5b48e01b996cadc001622fb5e363b421c0c0c0",
        "genesisBlockHeader": {
            "parentHash": "0x0000000000000000000000000000000000000000000000000000000000000000",
            "uncleHash": "0x1dcc4de8dec75d7aab85b567b6ccd41ad312451b948a7413f0a142fd40d49347",
            "coinbase": "0x0000000000000000000000000000000000000000",
            "stateRoot": "0xaff9f63320a482f8c4e4f15f659e6a7ac382138fbbb6919243b0cba4c5988a5a",
            "transactionsTrie": "0x56e81f171bcc55a6ff8345e692c0f86e5b48e01b996cadc001622fb5e363b421",
            "receiptTrie": "0x56e81f171bcc55a6ff8345e692c0f86e5b48e01b996cadc001622fb5e363b421",
            "bloom": "0x00000000000000000000000000000000000000000000000000000000000000000000000000000000000000000000000000000000000000000000000000000000000000000000000000000000000000000000000000000000000000000000000000000000000000000000000000000000000000000000000000000000000000000000000000000000000000000000000000000000000000000000000000000000000000000000000000000000000000000000000000000000000000000000000000000000000000000000000000000000000000000000000000000000000000000000000000000000000000000000000000000000000000000000000000000000",
            "difficulty": "0x00",
            "number": "0x00",
            "gasLimit": "0x016345785d8a0000",
            "gasUsed": "0x00",
            "timestamp": "0x00",
            "extraData": "0x00",
            "mixHash": "0x0000000000000000000000000000000000000000000000000000000000000000",
            "nonce": "0x0000000000000000",
            "baseFeePerGas": "0x07",
            "withdrawalsRoot": "0x56e81f171bcc55a6ff8345e692c0f86e5b48e01b996cadc001622fb5e363b421",
            "hash": "0xccb89b5b6043aa73114e6857f0783a02808ea6ff4cabd104a308eb4fe0114a9b"
        },
        "blocks": [
            {
                "rlp": "0xf90283f90219a0ccb89b5b6043aa73114e6857f0783a02808ea6ff4cabd104a308eb4fe0114a9ba01dcc4de8dec75d7aab85b567b6ccd41ad312451b948a7413f0a142fd40d49347942adc25665018aa1fe0e6bc666dac8fc2697ff9baa019919608275963e6e20a1191996f5b19db8208dd8df54097cfd2b9cb14f682b6a08151d548273f6683169524b66ca9fe338b9ce42bc3540046c828fd939ae23bcba0c598f69a5674cae9337261b669970e24abc0b46e6d284372a239ec8ccbf20b0ab9010000000000000000000000000000000000000000000000000000000000000000000000000000000000000000000000000000000000000000000000000000000000000000000000000000000000000000000000000000000000000000000000000000000000000000000000000000000000000000000000000000000000000000000000000000000000000000000000000000000000000000000000000000000000000000000000000000000000000000000000000000000000000000000000000000000000000000000000000000000000000000000000000000000000000000000000000000000000000000000000000000000000000000000000000000000000800188016345785d8a000082a8610c80a0000000000000000000000000000000000000000000000000000000000000000088000000000000000007a056e81f171bcc55a6ff8345e692c0f86e5b48e01b996cadc001622fb5e363b421f863f861800a8405f5e10094100000000000000000000000000000000000000080801ba07e09e26678ed4fac08a249ebe8ed680bf9051a5e14ad223e4b2b9d26e0208f37a05f6e3f188e3e6eab7d7d3b6568f5eac7d687b08d307d3154ccd8c87b4630509bc0c0",
                "blockHeader": {
                    "parentHash": "0xccb89b5b6043aa73114e6857f0783a02808ea6ff4cabd104a308eb4fe0114a9b",
                    "uncleHash": "0x1dcc4de8dec75d7aab85b567b6ccd41ad312451b948a7413f0a142fd40d49347",
                    "coinbase": "0x2adc25665018aa1fe0e6bc666dac8fc2697ff9ba",
                    "stateRoot": "0x19919608275963e6e20a1191996f5b19db8208dd8df54097cfd2b9cb14f682b6",
                    "transactionsTrie": "0x8151d548273f6683169524b66ca9fe338b9ce42bc3540046c828fd939ae23bcb",
                    "receiptTrie": "0xc598f69a5674cae9337261b669970e24abc0b46e6d284372a239ec8ccbf20b0a",
                    "bloom": "0x00000000000000000000000000000000000000000000000000000000000000000000000000000000000000000000000000000000000000000000000000000000000000000000000000000000000000000000000000000000000000000000000000000000000000000000000000000000000000000000000000000000000000000000000000000000000000000000000000000000000000000000000000000000000000000000000000000000000000000000000000000000000000000000000000000000000000000000000000000000000000000000000000000000000000000000000000000000000000000000000000000000000000000000000000000000",
                    "difficulty": "0x00",
                    "number": "0x01",
                    "gasLimit": "0x016345785d8a0000",
                    "gasUsed": "0xa861",
                    "timestamp": "0x0c",
                    "extraData": "0x",
                    "mixHash": "0x0000000000000000000000000000000000000000000000000000000000000000",
                    "nonce": "0x0000000000000000",
                    "baseFeePerGas": "0x07",
                    "withdrawalsRoot": "0x56e81f171bcc55a6ff8345e692c0f86e5b48e01b996cadc001622fb5e363b421",
                    "hash": "0xc970b6bcf304cd5c71d24548a7d65dd907a24a3b66229378e2ac42677c1eec2b"
                },
                "blocknumber": "1",
                "transactions": [
                    {
                        "type": "0x00",
                        "chainId": "0x00",
                        "nonce": "0x00",
                        "gasPrice": "0x0a",
                        "gasLimit": "0x05f5e100",
                        "to": "0x1000000000000000000000000000000000000000",
                        "value": "0x00",
                        "data": "0x",
                        "v": "0x1b",
                        "r": "0x7e09e26678ed4fac08a249ebe8ed680bf9051a5e14ad223e4b2b9d26e0208f37",
                        "s": "0x5f6e3f188e3e6eab7d7d3b6568f5eac7d687b08d307d3154ccd8c87b4630509b",
                        "sender": "0xa94f5374fce5edbc8e2a8697c15331677e6ebf0b"
                    }
                ],
                "uncleHeaders": [],
                "withdrawals": []
            }
        ],
        "lastblockhash": "0xc970b6bcf304cd5c71d24548a7d65dd907a24a3b66229378e2ac42677c1eec2b",
        "pre": {
            "0x1000000000000000000000000000000000000000": {
                "nonce": "0x00",
                "balance": "0x00",
                "code": "0x4660015500",
                "storage": {}
            },
            "0xa94f5374fce5edbc8e2a8697c15331677e6ebf0b": {
                "nonce": "0x00",
                "balance": "0x3635c9adc5dea00000",
                "code": "0x",
                "storage": {}
            }
        },
        "postState": {
            "0x1000000000000000000000000000000000000000": {
                "nonce": "0x00",
                "balance": "0x00",
                "code": "0x4660015500",
                "storage": {
                    "0x01": "0x01"
                }
            },
            "0x2adc25665018aa1fe0e6bc666dac8fc2697ff9ba": {
                "nonce": "0x00",
                "balance": "0x01f923",
                "code": "0x",
                "storage": {}
            },
            "0xa94f5374fce5edbc8e2a8697c15331677e6ebf0b": {
                "nonce": "0x01",
                "balance": "0x3635c9adc5de996c36",
                "code": "0x",
                "storage": {}
            }
        },
        "sealEngine": "NoProof"
    }
}